:020000041000EA
:1000000000B5324B212058609868022188439860DF
:10001000D860186158612E4B002199600221596106
:100020000121F02299502B49196001219960352056
:1000300000F044F80222904214D00621196600F024
:1000400034F8196E01211966002018661A6600F04E
:100050002CF8196E196E196E052000F02FF8012189
:100060000842F9D1002199601B49196000215960AB
:100070001A491B48016001219960EB211966A021F2
:10008000196600F012F800219960164914480160C1
:100090000121996001BC002800D000471248134993
:1000A000086003C880F30888084703B5996A0420EC
:1000B0000142FBD001200142F8D103BD02B5186610
:1000C0001866FFF7F2FF186E186E02BD00000240BE
:1000D000000000180000070000035F00212200005C
:1000E000F4000018222000A00001001008ED00E03C
:1000F00000000000000000000000000074B24E7A12
:1001000000200420F7010010C3010010C5010010F9
:10011000C1010010C1010010C1010010C101001097
:10012000C1010010C1010010C1010010C701001081
:10013000C1010010C1010010C9010010CB01001065
:10014000CD010010CD010010CD010010CD01001037
:10015000CD010010CD010010CD010010CD01001027
:10016000CD010010CD010010CD010010CD01001017
:10017000CD010010CD010010CD010010CD01001007
:10018000CD010010CD010010CD010010CD010010F7
:10019000CD010010CD010010CD010010CD010010E7
:1001A000CD010010CD010010CD010010CD010010D7
:1001B000CD010010CD010010CD010010CD010010C7
:1001C00000BE00BE00BE00BE00BE00BEEFF3058054
:1001D000103800BEF2EB8871D4970010F49700102D
:1001E0003402001090A31AE700201F49086006C8D7
:1001F00081F3088810471D48006800282FD10DA4FE
:100200000ECC002902D000F012F8F9E71849194A7B
:10021000002000E001C19142FCD1174988471749ED
:1002200088471749884700BEFDE701C901C29A42C5
:10023000FBD37047F4970010C0000020BC170020CB
:10024000F0AE00100000042000000420F0AE00100A
:10025000001004200010042000000000704709482E
:1002600004F0D8FC0047000008ED00E0000000D0DA
:10027000C0170020BC290020C9340010B10E0010A6
:10028000F13500105756000006005250ABB36053D2
:100290005895001006005250861C03026895001005
:1002A000060052505422A29D7C9500100500525029
:1002B000DE65F468F0AE0010F8B5C04610B5064C27
:1002C0002378002B07D1054B002B02D0044800E017
:1002D00000BF0123237010BDC81A002000000000D9
:1002E000E88E0010044B10B5002B03D003490448DE
:1002F00000E000BF10BDC04600000000CC1A002086
:10030000E88E001010B500230C000022002105E04B
:1003100001314AB24B00D2175BB222405340DAB2ED
:10032000520052B21B0601D5624052B2D3B25B00FA
:100330005BB2002A01DA63405BB2DAB2520052B219
:10034000002B01DA624052B2D3B25B005BB2002AEA
:1003500001DA63405BB2DAB2520052B2002B01DA2A
:10036000624052B2D3B25B005BB2002A01DA634052
:100370005BB2DAB2520052B2002B01DA624052B2E2
:100380004254FF29C4D110BD10B504001800002A42
:1003900008D08A18D2B20B7801315840CBB2205C19
:1003A0009A42F8D110BDC04610B500290AD003000A
:1003B00041180020044C1A7801335040205C8B42D5
:1003C000F9D110BD0020FCE7E88F001010B500291E
:1003D0000AD0030041180020044C1A780133504021
:1003E000205C8B42F9D110BD0020FCE7E88E0010A4
:1003F0008022F0B5C6460121134B144E920000B581
:100400001A603368124D083399402A6882B05068E8
:10041000084214D16946CC1D0E49012788469B002D
:100420009B5821001B0E4046237002F0FDFC390052
:1004300033682A680833994050680842EFD002B008
:1004400080BCB846F0BDC04680E200E06C0E0020E3
:10045000640E0020DC200020F0B5CE46474680B573
:1004600085B001F009FBFA2203000121814802F066
:10047000C9FC012008F010F87F4B804A1860C302C5
:100480001A407F4B800113437E4A7F4F1360A022A6
:10049000D20594467D4A604402607D4A7D494260AF
:1004A000002282600361386807F0A8FE7A4B3C683E
:1004B00018607A4B05001E688022802331002000DE
:1004C00007F000FF802280233100200007F04CFF5E
:1004D000734B0720E1184B1E9941063101F0BEF91C
:1004E0000121072001F0FCF900210122072001F081
:1004F000CDF980235B020093EB1CEA011B0313433D
:10050000684A052013408022D20513430193664BAD
:100510000393664B029302F0C5FE05F031FA64497D
:1005200005F013FA814605F053FA83B29846424625
:100530000023002A0ED0404605F022FA011C48464E
:1005400005F0FDF98721C90505F013FA05F040FA19
:10055000C0B2030242461004184331002A006B4621
:100560000090200007F052FF0123B34022680320CF
:100570001343236001F0C6F9D02308221B065A62F8
:1005800009204C4901F0CCFA0021092001F090FA31
:100590004949386807F032FE484B3D681860484BBF
:1005A00000221F6880230600390028005B0007F046
:1005B000DBFE3B4B0820E9184B1E9941063101F048
:1005C0004DF90121082001F079F9002101220820CC
:1005D00001F05CF980235B0200938023DB0203932C
:1005E00033000833F2011B031343364A052013403E
:1005F0008022120513430193334B029302F052FE03
:1006000005F0BEF92A4905F0A0F9804605F0E0F9A9
:1006100084B20023002C0ED0200005F0B1F9011C9B
:10062000404605F08CF98721C90505F0A2F905F0CF
:10063000CFF9C3B21B0224043200390028001C4346
:100640006B46009407F0E2FE2A0080232D32FF3231
:100650009B01134302221A600123BB402A68012137
:10066000134309202B6001F023FA05B0C0BCB94642
:10067000B046F0BDDC20002028220020F17F00FFE2
:1006800011000400B4200020640E0020F02000209F
:100690001000305088910010BC200020EC20002079
:1006A0000000E0AFFFFFFF9F071C104000000C4060
:1006B0000050434AF103001080910010B820002040
:1006C0006C0E0020FFFFFFE000000C80F8B501F089
:1006D000BFF82B4E3368C01A2A4B1B68984231D39F
:1006E000294B1A78002A03D0284A1278002A2AD1E6
:1006F000274C284B2849238016231622A370033148
:10070000E01C05F003FA1923244D17222B7024480E
:100710000023A11CFFF738FE2B785A1C2A70E054E6
:10072000A022D20594461F4B1B689B0163441C60AA
:100730002A78DA6101221C4B1A7001F079F801F075
:1007400087F83060F8BD00221A700823134D104C52
:100750002B70164BA71C2360154B062163603800D5
:10076000FFF734FE2B7807215A1CE05438002A701A
:10077000FFF71AFE2B785A1C2A70E054D0E7C046C7
:10078000E81A0020680E0020600E0020B429002026
:10079000F0200020EE180000C0200020B02900202A
:1007A0002421002028220020AE290020C80832EE93
:1007B000EA10050070B50025C74CC84E615D3000D9
:1007C00005F0AAFB01356378EDB2AB42F6D20A2000
:1007D00005F0B4FA0122C24B1A70A3781E2B00D97F
:1007E0004CE1012B00D8B9E01E2B00D9B6E0BD4A80
:1007F0009B00D3589F46E0780100FF394B1E99417A
:10080000C2095242130222791B18C9B21B02FF2AE5
:1008100000D00121D31862791B02FF2A00D00121E8
:10082000A679D2181202FF2E00D00121B618F317B4
:10083000AD4DF018297158400A2104F045FA4300E3
:1008400018180A21400004F03FFA002E02DA802333
:10085000DB0518432860E0790100FF394B1E994100
:10086000C20952421302227A1B18C9B21B02FF2A84
:1008700000D00121D318627A1B02FF2A00D0012187
:10088000A67AD2181202FF2E00D00121B618F31753
:10089000F018297658400A2104F016FA4300181877
:1008A0000A21400004F010FA80231B060343002EA7
:1008B00002DA8020C00503430B226B61A256E37A63
:1008C000002A00DAE0E1002001221818237B000250
:1008D000FF2B00D001222C2118186A5405F056F87D
:1008E00005F07CF8814A824B04F059FC04F0E0FCEE
:1008F0000D22A862A256637B002A00DAD2E1002210
:1009000001219B18A27B1B02FF2A00D0012140205D
:10091000D3180F222954EB63A256E37B002A00DA96
:10092000B9E1002101205918237C0902FF2B00D0D6
:1009300001205422A8546F4A5B18944664226344F1
:1009400053432B651123E356627CDB171B029B1874
:10095000FF3A6B66531E9A416823EA5470BD032226
:100960008C20A256E178D2175F4B12025218400039
:10097000FF391A504A1E91418E2252009954042286
:10098000A2562179D217120252181430FF391A5088
:100990004A1E91419822520099540522A25661792B
:1009A000D217120252181430FF391A504A1E9141C0
:1009B000A222520099540622A256A179D2171202FD
:1009C00052181430FF391A504A1E9141AC2252007D
:1009D00099540722A256E179D21712025218143004
:1009E000FF391A504A1E9141B622520099540822EA
:1009F000A256217AD217120252181430FF391A5017
:100A00004A1E9141C022520099540922A256617A8D
:100A1000D217120252181430FF391A504A1E91414F
:100A2000CA22520099540A22A256A17AD21712025F
:100A300052181430FF391A504A1E9141D4225200E4
:100A400099540B22A256E17AD2171202521814308E
:100A5000FF391A504A1E9141DE22520099540C224D
:100A6000A256217BD217120252181430FF391A50A5
:100A70004A1E9141E822520099546FE73A2B00D068
:100A80006CE7E378EA2B00D068E76379102B00D09D
:100A900064E72089E3880004184300F0DDFEA089A4
:100AA00063890004184300F0D7FE57E70322A256DB
:100AB000E378002A00DAE0E0002201219B18227985
:100AC0001B02FF2A00D00121D318C82206488350F8
:100AD000CC23C15442E7C04658290020E8900010BA
:100AE000B4290020F0900010A02200209A99999932
:100AF0009999154018FCFFFF0323E356E278002B79
:100B000000DAB3E000210123521821791202FF29F3
:100B100000D001238A187C21664D6B5493009B18EA
:100B20005B00AB676379FF3B591E8B41A179DBB258
:100B3000FF2900D0012390216B5464235A432833AA
:100B4000EA50E2791100FF394B1E9941D009404229
:100B50000002237A8218C9B21202FF2B00D00121B1
:100B60009A18637A1202FF2B00D001219B18A02251
:100B7000AB50A423E9540A23B421E356A27ADB172D
:100B80001B029B18FF3A6B50531E9A41B823EA543C
:100B9000E4E60322A256E378002A60DB002001226B
:100BA000181823790002FF2B00D00122E021414DCB
:100BB00018186A5404F0EAFE04F010FF3E4A3F4B56
:100BC00004F0EDFA04F074FBDC230522E850A25691
:100BD0006379002A3CDB002001221818A379000267
:100BE000FF2B00D00122F42118186A5404F0CEFE25
:100BF00004F0F4FE304A314B04F0D1FA04F058FB13
:100C0000F0230722E850A256E379002A19DB0020DE
:100C100001221818237A0002FF2B00D00122842120
:100C200049006A54181804F0B1FE04F0D7FE234BB3
:100C3000214A04F0B4FA04F03BFB82235B00E85045
:100C40008CE61A00FF3A511E8A411D48D2B2E0E7F5
:100C50001A00FF3A511E8A411948D2B2BDE71A0064
:100C6000FF3A511E8A411648D2B299E71300FF3B62
:100C7000591E8B411249DBB246E71900FF394A1E63
:100C800091410F4AC9B219E71A00FF3A511E8A4131
:100C90000B48D2B219E61800FF38421E90410849AD
:100CA000C0B240E61900FF394A1E9141044AC9B258
:100CB00027E6C046A0220020F180B2295778773F6E
:100CC00000FFFFFF70B55E4E5E4C5F4D82B0023696
:100CD0002268EFF3108172B61368002BFCD0BFF3CB
:100CE0005F8F238962899B1A02D5E28901329B18A2
:100CF0002268BFF35F8F0020106081F31088002B03
:100D00005DD06B462000D91D02F0C6F82B78042B6D
:100D1000DED84E4A9B00D3589F464D490A78531C53
:100D2000DBB20B706946C87945498854494A127844
:100D30009A42CDD204232B70CAE76B46DB79022B93
:100D400000D16CE0072B3CD0082B47D01E2B52D093
:100D5000142B5DD13F4A12780C2A22D103223C4940
:100D60002A700A78501C087035498B54B0E7384B0C
:100D70001A78511C19706B463149DB798B54354A0E
:100D8000137002232B70A3E7324B31001A783248DC
:100D9000013A0023D2B2FFF7F7FA6B46DB798342C0
:100DA0004AD000232B7093E76B46DB79EA2B8FD177
:100DB000012227492A700A7021490B7088E702B086
:100DC00070BD244A1278042AEBD1032220492A70EC
:100DD0000A78501C08701A498B5479E71D4A12781A
:100DE0000A2ADED103221A492A700A78501C087098
:100DF00013498B546CE7174A1278082AD1D1032281
:100E000013492A700A78501C08700D498B545FE70B
:100E10003A2BC6D10F4A12780D2AC2D19EE70D4A4D
:100E20001278112ABDD1032209492A700A78501C70
:100E3000087003498B544BE7FFF7BCFC48E7C046FA
:100E400058290020DC200020B72900206C910010D8
:100E5000A4290020A52900202421002010B5D52197
:100E60000148FFF74FFA10BD2421002010B505F00E
:100E70005FF8652406E0013CA4B2002C07D0643082
:100E800001F038FC002006F00BFC0028F3D00748E6
:100E900004F0A0FF00F058F8FFF7DEFA00F068F960
:100EA000FA200121400002F06DFA10BDAC91001053
:100EB00010B5FFF7DBFF02F05BFA00F0AFF8FFF7C9
:100EC00005FCFFF7FFFE00F031FCF4E7F0B5C64685
:100ED00000B51A4C82B0A369DB0623D46B46DE1D35
:100EE000174B10259846174FA3691D42FCD1236864
:100EF0003A683370EFF3108172B61368002BFCD0A0
:100F0000BFF35F8F3B68BFF35F8F00221A6081F3EE
:100F100010883100380001F087FF002806D0A3694F
:100F20001D42E1D002B080BCB846F0BD404604F09E
:100F300051FFA3691D42D7D0F4E7C04600400340EB
:100F4000B4910010D028002030B583B000F094FD9B
:100F500080222B4C2B4D030052000121200001F078
:100F600051FF2800284901F0CFFFC0222B6B12024D
:100F70001340264A002013601023EA6A1340244AD3
:100F800013606E23E96A8B431360022100F066FC54
:100F90000221012000F062FC0121012000F08EFC02
:100FA00014201C4900F0BCFD0121142000F080FD3C
:100FB0005023AB636A6B183B1340174A002513603C
:100FC00004E06B462000D91D01F066FF2268EFF3B4
:100FD000108172B61368002BFCD0BFF35F8F23899A
:100FE00062899B1A02D5E2890132D3182268BFF3C5
:100FF0005F8F156081F31088002BE2D103B030BD04
:10100000D028002000400340A0860100305003405B
:101010002C500340CD0E001034500340344BF0B53B
:10102000CE469946012347464B44984680B5314CFD
:10103000314D83B02268EFF3108172B61368002B34
:10104000FCD0BFF35F8F238962899B1A02D5E289A6
:1010500001329B182268BFF35F8F0026166081F370
:101060001088002B3ED000F0E3FB2B68234FC01A02
:10107000022800D93E7000F0DBFB6B462860D91DCA
:10108000200001F009FF3B78002B22D0012BD1D1A9
:101090001B4948460A78531CDBB20B706946C97974
:1010A0008154182BC6D10A00143B9A4306D0202342
:1010B0000A009A43142A01D0242907D11622414656
:1010C000104804F023FD01220F4B1A7000233B70DF
:1010D000B0E76B46DB790F2BACD1094A0E3B13709E
:1010E0003B70A7E703B0C0BCB946B046F0BDC046F0
:1010F000B8280020D0280020E41A0020A7290020CA
:10110000A6290020C3200020AF290020F0B58022AE
:10111000C6460121124B134E00B51A603368124DBA
:10112000083399402A6882B05068084214D1694651
:10113000CC1D0E49012788469B009B5821001B0EA1
:101140004046237001F070FE390033682A68083386
:10115000994050680842EFD002B080BCB846F0BD5C
:1011600080E200E0740E0020700E0020F4280020C1
:10117000F0B54746CE4680B58B4BA3B00AAA1800FF
:10118000110070C870C170C870C170C870C170C8DB
:1011900070C104A90C00E0C8E0C4E0C8E0C416A80F
:1011A00004004833E0CBE0C4E0CBE0C4E0CBE0C4D3
:1011B000E0CBE0C47D4B00241E00E136FF360588FD
:1011C0001C609D810D781C719D7315889C601D822B
:1011D0001433023001310232B342F0D100F04CFC42
:1011E000FA2203000121724801F00CFE012007F0F1
:1011F00053F9704B704A1860C30213401122134315
:101200006E4A80011360A022D20594466C4A604465
:1012100002606C4D6C4A6D494260846003612868CD
:1012200006F0ECFF6A4B2E6818606A4B04001F68DA
:10123000694B0520F1184B1E9941063100F00EFB59
:101240000121052000F04CFB80235B020093E31C8E
:10125000E2011B031343614A052013408022D2059B
:10126000134301935E4B03935E4B029302F01AF813
:1012700004F086FB5C4904F068FB814604F0A8FB9F
:1012800083B2984642460023002A0ED0404604F01E
:1012900077FB011C484604F052FB8721C90504F086
:1012A00068FB04F095FBC0B20302424610041843E9
:1012B00022006B4639000090300007F0A7F80720A5
:1012C0004A4900F02DFC0121072000F0F1FB4849BC
:1012D000286806F093FF474B2D681860464B0022A4
:1012E0001F68060020233900280007F03DF83A4B1C
:1012F0000520E9184B1E9941063100F0AFFA012193
:10130000052000F0DBFA00210122052000F0BEFAE2
:1013100080235B020093A0239B02039333000833D6
:10132000F2011B031343354A05201340A022D204C7
:1013300013430193324B029301F0B4FF04F020FBFE
:10134000294904F002FB804604F042FB84B20023EA
:10135000002C0ED0200004F013FB011C404604F0CA
:10136000EEFA8721C90504F004FB04F031FBC3B297
:101370001B02240432001C4339006B4628000094F1
:1013800007F044F82A0080232D32FF329B011343DB
:1013900002221A600123BB402A6813432B6023B04A
:1013A000C0BCB946B046F0BDC8910010A0220020D4
:1013B000F42800203C290020F17F00FFE8280020CD
:1013C00008290020700E00201000205048920010C4
:1013D000F0280020042900200000E0AFFFFFFF9F5D
:1013E0000514104000000C400000E1480D110010F1
:1013F00040920010EC280020740E0020FFFFFFE058
:1014000000000C80F0B54F464646D6468300A44AFD
:101410001818800011180B8AC0B50E7C190A8A466C
:101420008C461158FF22134010331F0AB84643441C
:10143000134053441F0AB8464344CDB213405B19CE
:101440001F0AB8460C1243441340E4B21B191F0A8A
:10145000B846081443441340C0B21B181F0AB846CC
:1014600043441340090E5B181A0A92B2D3188D4AEE
:10147000DB43904610224746DBB299463A707E2EF7
:1014800000D1D0E07D2E00D180E07E700226534650
:101490007E2B00D182E062467D2A00D1D2E0474611
:1014A0006346721CBB557E2D00D181E07D2D00D19D
:1014B000BFE04346561CF6B29D547E2C00D183E01B
:1014C0007D2C00D1CEE04346721CD2B29C557E28C2
:1014D00000D185E07D2800D1BBE04346541CE4B236
:1014E00098547E2900D187E07D2900D1CEE0434683
:1014F000621CD2B219554B467E2B00D189E07D2B60
:1015000000D1B8E043464946561CF6B2995401252D
:101510006420002101F0DCF82900634A634B126863
:101520001C689140236820008B432360604B20227D
:101530001F682023390006F0C5FE39002023202231
:10154000200006F011FF0121052000F0C9F92A0052
:101550003B1D9A4080239B0123431A60A022BD407B
:10156000D2059446424623681D43524B25601B68B2
:101570009B0163441A60DE6100F05AF94E4B06305D
:101580001860E0BCBA46B146A846F0BD5D2253469D
:101590007E70BA7003267E2B00D07CE77D22434606
:1015A0005E279A55B21C01369F557E2D00D07DE7EF
:1015B0007D254346961C9D540132D2B21F3DF6B2A2
:1015C0009D547E2C00D07BE77D2243465E259A55B4
:1015D000B21C0136F4B2D2B21D557E2800D079E794
:1015E0007D204346941C98540132D2B21F38E4B295
:1015F00098547E2900D077E743467D225E211A5514
:10160000A21C0134E4B219554B46D2B27E2B00D055
:1016100075E74146013B8B54961C0132D2B21F3B09
:10162000F6B28B5473E77D227A701F3A0326BA70A4
:101630002DE743469D545D25961C0132D2B2F6B289
:101640009D543AE743465D279A55B21C01369F5593
:1016500029E7434698545D20941C0132D2B2E4B28B
:1016600098543EE743465D259C55B21C0136F4B2C2
:10167000D2B21D552BE74346494699545D23414656
:10168000961C0132D2B2F6B28B5440E7434619554C
:101690005D21A21C0134E4B2D2B219552BE7C04639
:1016A000A022002008290020740E0020700E0020C7
:1016B000042900203C290020AC28002070B500F04F
:1016C000B7F81822174D0600174C28780130C0B221
:1016D0000100172801D9002100208B005B189B0016
:1016E000E31899688E4202D31B79002B05D1013A89
:1016F000D2B2002AEAD1287070BD2870FFF782FEAE
:101700002A7893009B1800229B00E3181A7100F0BE
:101710008FF82A7893009B189B00E418A3891B1864
:10172000A360E9E7A9290020A0220020F0B5394CE8
:1017300083B02368002B06D000F07AF82368984223
:1017400028D803B0F0BD34480268EFF3108172B6B8
:101750001368002BFCD0BFF35F8F038942899B1A6B
:1017600014D40268BFF35F8F0024146081F31088E3
:10177000002BE6D06B46D91D01F08EFB274C237859
:101780007E2B35D06B46DB792370DAE7C2890132D4
:101790009B18E6E701252A00214B224E1968306884
:1017A0008A400368934303600022202306F0DCFD97
:1017B0001D4B36681F68002220233900300006F0D8
:1017C000D3FD0121052000F079F801220021052038
:1017D00000F05CF82A003B1D9A408023BD409B012D
:1017E00033431A6033681D43002335602360A8E744
:1017F0006B46DB79E42BC7D1A021C9058C460B4A87
:101800001268920162441269D201BDD4FFF756FFFB
:10181000B8E7C046AC280020F4280020A829002002
:1018200004290020700E0020740E00203C290020A6
:1018300010B501F01FF8002905D0FA22002392000C
:1018400003F080FA10BDFA21890003F03DFAF9E7B0
:1018500010B501F00FF810BD00BA7047094A8300B7
:1018600094464022634410B51C68C0006240C02406
:1018700014408022520113431C60034B9C46604479
:10188000416010BD04C00140004001400A4B80008F
:101890009C4604236044002901D00C230821002A1F
:1018A00000D10B00026853400C221A4080235B01D8
:1018B000184302607047C04604C00140074BC00097
:1018C0009C466044036809045940C0239B021940A8
:1018D00080235B01184301607047C046044001400B
:1018E000074BC0009C466044036809025940C0236E
:1018F0009B00194080235B01184301607047C0467C
:10190000044001400123D022834012069362936178
:10191000094A83009446402263441968C0004A4043
:10192000C02111408022520113431960034B9C4691
:10193000052360444360704704C0014000400140FB
:10194000024B18688007C00F7047C04600C00640B1
:10195000EFF3108072B6034A1368002BFCD0BFF37C
:101960005F8F70472C0100D0BFF35F8F0022024BC6
:101970001A6080F3108870472C0100D070B5EFF327
:10198000108C72B60D4D2B68002BFCD0BFF35F8F0F
:101990000724CB08C618C05C01230C40A3401C00E0
:1019A0000440034207D103433370BFF35F8F2C60C1
:1019B0008CF3108870BD100001F01EFE2C0100D0C9
:1019C000F8B54746CE46884680B5EFF3108C72B620
:1019D000214D2C68002CFCD0BFF35F8F9A422CD88D
:1019E000D4080727055D061901241740BC402C4286
:1019F0001FD007210127894609E0D408055D061993
:101A00004C4639001440A1400C00294211D001324B
:101A10009342F2D201204042BFF35F8F00220E4B6F
:101A20001A608CF3108800280FDBC0BCB946B046A2
:101A3000F8BD2C4310003470EEE7BFF35F8F002336
:101A40002B608CF31088012040424346002BECD0E1
:101A5000089801F0D1FDC0462C0100D00021044BB4
:101A6000044ABFF35F8F02C39342FAD17047C04666
:101A7000000100D0800100D0044A1078431CDBB282
:101A8000172B00D9102313707047C046780E002022
:101A900000B5054B83B00100009318221F230348B3
:101AA000FFF78EFF03B000BD6C920010882000206D
:101AB00001238340002904D0034A1360034A1360C2
:101AC0007047034A1360FBE780E200E000E100E0BA
:101AD00080E100E001238340014A13607047C04663
:101AE00000E200E0084B10309B688000C358002BD8
:101AF00007D0064A00209B1A2F229A424041C0B2CA
:101B000070470020FCE7C04600ED00E07C0E00209E
:101B1000024B10309B688000C058704700ED00E019
:101B200070B50D00EFF3108672B60F4A1368002BE4
:101B3000FCD0BFF35F8F0D4B10309B6884001B59A6
:101B40000B4A934203D09D4201D001F06DFD074B3B
:101B50009B681D51BFF35F8FBFF35F8F0022024B65
:101B60001A6086F3108870BD240100D000ED00E0FB
:101B7000CD010010F0B557464E46DE464546E0B56D
:101B800085B0060002911700EFF3108B72B6674A1A
:101B90001368002BFCD0BFF35F8F0025644B5D57AB
:101BA0009A46002D00DAA4E06B00624C03935B19A7
:101BB0009B009846A146C1444B4652469B7910363D
:101BC00013705D4BB2009B68019299580B1B2F2B31
:101BD00034D95A4B994200D0A4E0039B584A9C4602
:101BE000584B6544AD006353434602336519E4180E
:101BF000554B0121043B1B1B1B055B0D13436B80E5
:101C0000524BEF71AB80FF23AB71029BAB604B4635
:101C10000B431900484B019A9B689950BFF35F8FA3
:101C2000BFF35F8F0022414B1A608BF3108805B021
:101C3000F0BCBB46B246A946A046F0BD01200A0052
:101C40008243D379BB422FD845464E4613004049C4
:101C50001B1B5B415943090D3A4B63533A4B023509
:101C60006519043B5B1B1B05354D5B0D2B437380D6
:101C70000426B446E0444444131F1B1B4C46A17188
:101C800002991B05A16049465B0D2B43A380314B94
:101C9000E77101431360BDE75800C01880002018A9
:101CA000C679BE422BD902000623D356002BF3DAA5
:101CB000101D82462848804604267642B446E144F8
:101CC00050464E46361A3005400D824656461C4850
:101CD000957106439680039A944665441D4AAD006B
:101CE000641922604246A371029BA280E771A3603F
:101CF00090E701F099FC002553465D5754E7101D0D
:101D0000824690884005001584464046D444664685
:101D100004302018301AE0260005400D360230430A
:101D20008046C9E701F080FC57E7C046240100D097
:101D3000B12900207C0E002000ED00E0CD01001054
:101D400000E0FFFF00A1FFFFAC0E002001BDFFFF80
:101D5000AAAA00000148804701BD0000F0B5DE4698
:101D600057464E464546E0B50C0083B0EFF3108968
:101D700072B6584A1368002BFCD0BFF35F8F564BE6
:101D80009A68030010339F00D559544A90469542F3
:101D900032D0A54243D0524EAA1B2F2A2CD8012262
:101DA0008240924651464F4A126811400191514675
:101DB0004D4A1160BFF35F8FEFF305829346002A0F
:101DC00033D101232A009A4393689C4208D177E0DB
:101DD0004B005B189B00F3189968A1422AD01A00A7
:101DE000062151560029F3DA019B002B19D05246E7
:101DF0003E4B1A603B4B1A60374B9B68DD51BFF37B
:101E00005F8FBFF35F8F0022324B1A6089F3108817
:101E100003B0F0BCBB46B246A946A046F0BD1500D3
:101E2000EAE75246304B1A60E6E79342C9D001F028
:101E3000FBFBC6E706215956002921DB4A00501852
:101E4000800034188046A0689860E079D871062038
:101E500020569871002824DBA488F01A6405241504
:101E600044440019E0240005400D240220439880DA
:101E700052181F4B9200B6181A781970B271B3E756
:101E8000594600290FD1FF3191711A4991801849A3
:101E90000A789A71184A9B1B5B415A43120D0A70CB
:101EA000A2E71648E3E7164A1649D21A083A500242
:101EB000400D01439980144952080A43DA8093E7A0
:101EC0000621515613000029B8DA5A46002AEAD1F1
:101ED0004546DCE7240100D000ED00E0CD01001014
:101EE0007C0E002000E100E080E100E080E200E004
:101EF000B129002001BDFFFFAAAA000001BD00001A
:101F0000B60E002000F0FFFF00F8FFFF70B5EFF302
:101F1000058101240443EFF3108C72B6214A136843
:101F2000002BFCD0BFF35F8F1F4B05001F4AED1A3B
:101F30006D416A43120D1E4D8900AE6852B276584B
:101F4000A6421CD00621595691421CD01221595646
:101F5000914222D01E215956914220D02A21595611
:101F60000324914210D0134B19781A708171BFF37A
:101F70005F8F00220B4B1A608CF3108870BDAB682A
:101F80000D4C5C50EFE700246100091989005B18D3
:101F9000FF21997109499980E5E70124F4E70224BA
:101FA000F2E7C046240100D07C0E0020AAAA00005F
:101FB00000ED00E0B1290020CD01001001BDFFFFC0
:101FC000054B064A1360064A136053609360D36062
:101FD00013615361936170478080808000E400E06A
:101FE00004E400E000B5074B83B001000093002239
:101FF00005230548FFF7E4FC002801DB1F23181A1E
:1020000003B000BD88920010B8290020024B9C4606
:1020100061448900016070474000003410B504003D
:10202000FFF72AFD01002000FFF7F0FFFF232371D7
:10203000BFF35F8F10BDC04610B50400FFF71CFD55
:1020400001002000FFF7E2FFFF23A380BFF35F8FB3
:1020500010BDC04610B504000120FFF719FD044B68
:102060009C46604480002060BFF35F8F10BDC04677
:1020700040000034034B9C46614489000160BFF37B
:102080005F8F70474000003483680B4810B584466A
:1020900061446244090112019A18591854684B6846
:1020A00001209C4201D802D00020C0B210BD1268AD
:1020B0000B689A42F9D8F7E7FFFFFF0F0A4B196840
:1020C000EFF3108072B60A68002AFCD0BFF35F8F6E
:1020D0001B68BFF35F8F00221A6080F3108840BF37
:1020E000002000217047C046E4280020F8B557467C
:1020F0004E464546DE46E0B599460CAB1C780DAB26
:102100001B78060090469A460768002C11D1BC7BCC
:10211000002C42D065003B682D19033D59194B78BE
:10212000BB73002B00D1FB7300238B704B700B70C3
:1021300004E065003B682D19033D5919B2682A4B2C
:1021400094464246E3181B0163441A604A465A60AB
:102150000A9A9A600B9ADA6000238B704B700B70AE
:102160007B7B9B46002B2BD022005946B8687B68AE
:1021700098473A68002816D05B4658465B005B4497
:102180005519033BA870D118D35C002B00D06B709D
:102190005B460C707B73A34513D0F0BCBB46B246C4
:1021A000A946A046F8BD5B465B005B44033BD318E1
:1021B0009C705119525D002A00D05A705B460B701A
:1021C0007C7342464B46307D00F0B4FB051E06D0C2
:1021D0005346002B03D12100306800F0D5FD0E9B43
:1021E000002BDAD01D70D8E7FFFFFF0FF0B5DE46F9
:1021F00057464E4645460023E0B58BB00893664BE4
:102200008200D45800239B46099000F033FB62689B
:1022100006000F00EFF3108572B61368002BFCD098
:10222000BFF35F8F23689C465B7B9946002B68D089
:10223000A2685A4B90464B441B01984443461A6887
:102240005B6810001900801BB941002963DD099803
:1022500000F070FB002300229846002306920793AB
:1022600000239A466368BFF35F8F5A461A6085F36E
:1022700010885346002B08D10028C6D10BB0F0BC03
:10228000BB46B246A946A046F0BD089B414618028F
:102290004B461843D047626806000F00EFF31085E5
:1022A00072B61368002BFCD0BFF35F8F002F4FDB9B
:1022B00033003B4302D02369002B60D12368D97BD4
:1022C000002907D04A00521819688C4649466244D2
:1022D000033A51709A7B002A01D14A469A734A46C2
:1022E000DA734B46E168013BCA5C0132CA545B4673
:1022F00023616368BFF35F8F5A461A6085F31088C5
:1023000083E70023002298460023069207930023C8
:1023100000209A46A6E7002901D1002897D1002184
:10232000604600F0AFFC43461A685B68069207936C
:1023300043469B689A464346DB689846E3684B44AD
:10234000013B1B7808931B0203432361002089E7AC
:102350002369002BB2D0069A079B921BBB41002B2E
:1023600015DB5946049101210391494602914146EA
:102370000191514620000091FFF7B8FEB7E700F049
:1023800079FA32003B0012184B41002BE9DA0122A6
:10239000034B5242E5E7C0469C280020FFFFFF0F99
:1023A000FFFFFF7F10B5144C6368002B04D00A2197
:1023B0001248FFF72BFE10BD2300114A10212068A0
:1023C00000F07AFB032000F049FA032000F022FB22
:1023D00003200C4900F068FAFFF74EFB0A4B9C46BD
:1023E00003232375D0231B061B6860446375074BCA
:1023F00080006060DC60DAE7C40E0020E428002082
:1024000089200010ED210010400000349C2800209D
:1024100000487047C40E0020F0B557464E4645466A
:10242000DE46E0B585B0019310AB1B780600039340
:1024300000239A46984600927268EFF3108972B6AC
:102440001368002BFCD0BFF35F8F3568AC7B002C8A
:1024500049D067002B683F19033FDB195A78AA73EC
:10246000002A00D1EA73B168484A8C460098019965
:10247000A21812016244106051600E9991600F9988
:10248000D16042469A705A701A706B7B9B46002B43
:1024900045D022001900A8686B6898472A68002870
:1024A00030D05B4658465B005B44D719033BB8709D
:1024B000D118D35C002B00D07B705B460C706B7323
:1024C0005C452DD0F3681B19013B18787368BFF386
:1024D0005F8F42461A6089F310885346002B2CD137
:1024E0000002204307E07368BFF35F8F1C6089F32D
:1024F00010880120404205B0F0BCBB46B246A94658
:10250000A046F0BD5B465B005B44033BD3189C7068
:10251000D119D25D002A00D05A705B460B706C73E3
:10252000307D009A019B00F005FA82460028C9D050
:102530002100306800F028FCC4E7039B002B23D067
:102540000E9B00200F999847030004000D000B43D9
:102550001AD000290ADA009A019B121BAB410092A3
:102560000193002B0ADB039B9A4665E700F082F992
:1025700024184D4100940195002DF4DA0123044CF8
:102580005B4200930194EEE70020B4E7FFFFFF0FEA
:10259000FFFFFF7F70B542680400EFF3108572B64D
:1025A0001368002BFCD0BFF35F8F2068CEB2437B53
:1025B000B3420AD0FF230B405A00D3180268944656
:1025C0006344033B9B78002B13D0E268FF239446BF
:1025D0000B406344013B0A0A1978D2B291420ED0F3
:1025E00000206368BFF35F8F00221A6085F31088B4
:1025F00070BD22698A42F3D100202361F1E73100E6
:1026000000F0C2FBEDE7C046407D7047F0B5040026
:102610000D0006267642F717C64636196F4100B5FB
:1026200084B08F4214D811D000F024F932003B005E
:10263000121A8B41002B15DC002B3ED02000290004
:1026400000F022F904B080BCB846F0BD8642EBD958
:102650000026002700F00EF932003B00121A8B41D1
:10266000002BE9DD002302930193154B3200009308
:1026700014483B00FFF7D0FE0028DFDB002398461C
:10268000BC46114A114F7B6A9C4504D8B96A8E42F8
:10269000D4D99C45D2D11168EFF3108072B60B6883
:1026A000002BFCD0BFF35F8F1368BFF35F8F4146F1
:1026B000196080F3108820BFE5E7002ABED0D1E77B
:1026C000BD200010C40E0020E4280020004005407A
:1026D00070B504000D0000F0CDF800196941002923
:1026E00002DBFFF793FF70BD012001494042F8E78C
:1026F000FFFFFF7F70B5060000F0BCF8FA2204006F
:102700000D00002330000021920003F0FBF80019B7
:102710006941002902DBFFF779FF70BD0120014903
:102720004042F8E7FFFFFF7F70B5EFF30583050038
:102730000C0084B0002B0AD0164A0020536A9C4239
:1027400003D8926A0130AA421FD304B070BD124E62
:1027500002930193114B0200009330000B00FFF72E
:102760005BFE011EE8DD20BF3000FFF713FF094BC1
:102770000020596A8C42E8D89B6A0130AB42E4D20F
:10278000641A631E9C41E0B2DFE7E41A631E9C41B9
:10279000E0B2DAE700400540C40E0020BD20001082
:1027A000F0B5EFF30582D6464F4646461000C0B559
:1027B0001038EFF3108872B6214C2368002BFCD040
:1027C000BFF35F8F0123190081401E4D1F00696315
:1027D000AA461D4D29601D4D2E78AC463500C540DA
:1027E0002F402B4209D1BFF35F8F276088F31088F9
:1027F000E0BCBA46B146A846F0BD5346144D5F6AE8
:1028000083005D59AF420ED3124A8E439B586246F5
:102810001670BFF35F8F0022226088F31088002BB0
:10282000E6D09847E4E70C4B92009C46624413685C
:102830001360BFF35F8F0023236088F31088D7E70E
:10284000280100D0004005403C700540B62900201A
:1028500048290020701F0020D03F054010B501001E
:10286000024A0348FFF78AF810BDC046A492001040
:10287000AD290020034B596A0A00986A596A8A42B6
:10288000FAD1704700400540064A536A9942FCD885
:1028900007D1044B02E05A6A914202D19A6A8242FD
:1028A000F9D370470040054070B504000D00EFF308
:1028B000108672B61A4A1368002BFCD0BFF35F8FE4
:1028C000002D1BD02000FFF723F9164981420AD0C2
:1028D0002000FFF725F901212000FFF7E9F8012387
:1028E000A340114A1360114BA400E550BFF35F8F62
:1028F00000220B4B1A6086F3108870BD0B4BA200B0
:10290000D5500122A2400A4920000B7893430B7056
:102910000449FFF723FA00212000FFF7C9F8E5E793
:10292000280100D0A127001038600540701F00204A
:10293000B6290020F0B54F46D6464646C0B507003A
:102940002F4C616A0D00A66A616AA942FAD18B42D6
:1029500008D805D00120E0BCBA46B146A846F0BD73
:10296000B242F7D9EFF3108A72B6264801680029FF
:10297000FCD0BFF35F8F0125BD402349204C884622
:10298000097889462943C9B28C4641466046087099
:10299000391D1E48890065630A51B9000B50216A30
:1029A0000020294219D0616A0800A66A616A814242
:1029B000FAD18B4219D801D1B24216D8CC451DD0DC
:1029C0000F4B1F201D625D6301230740BB40104A6F
:1029D0001E38136043464A461A70BFF35F8F0022C9
:1029E000084B1A608AF31088B5E70020BFF35F8FA9
:1029F0000022044B1A608AF31088ACE70120ECE750
:102A000000400540280100D0B629002048290020B8
:102A100080E200E0EFF3108C72B60A490B68002BDD
:102A2000FCD0BFF35F8F01238340074A074813623E
:102A300002789A430270BFF35F8F00230B608CF320
:102A400010887047280100D000400540B6290020BA
:102A500070B5050014001600002915D00C00002ADE
:102A600012D080686B689847296800280ED07300E0
:102A70009B196200033B1219CB18033A9C7088180B
:102A80008A5C002A15D10670200070BD63001B19F6
:102A90007200033B9219CB18033A9E7088188A5C27
:102AA000002A02D104703400EEE75A70047034003A
:102AB000EAE75A700670E7E730B583600023CCB2CE
:102AC00043730133047342608373C4730D00006861
:102AD000012C06D9421C0133DBB2137003329C4235
:102AE000F9D1FF2129404B00591800234018033821
:102AF000437030BDF8B5CE46474606000C0080B5A1
:102B0000002907D04D0003686D18033D5A19577806
:102B1000002F04D12000C0BCB946B046F8BD7900F2
:102B2000C9190339884643445978894600215970A8
:102B3000517073683A002100806898473368002814
:102B400014D042469A18947059195B5D002B00D03E
:102B500053700F70270049463000FFF7CBFF390054
:102B600002003000FFF774FF0400D3E742464146FD
:102B70005D19AF709A185B5C002B00D06B701470FD
:102B8000E9E7C046F0B557464546DE464E46E0B555
:102B90000D006B0001685B19DF1E0400C85D83B087
:102BA0000192CA19002850D043001B18033BCB18D0
:102BB0005E78B446002E1AD1019E002E42D0E67BEC
:102BC000002E04D073009B19CB18033B5D70A37BD0
:102BD000002B00D1A573E57300282FD1002353707B
:102BE00003B0F0BCBB46B246A946A046F0BD720099
:102BF0006244033A89184A78904600224A70914606
:102C00005A70010032002000FFF722FF434682463F
:102C1000002B07D05B0021684344033BCB185A7854
:102C2000002A16D1424651462000FFF711FF2168C5
:102C3000019BCA19002BC2D10028CFD043001B181A
:102C4000033BCB1800219970C8E7019B002BB6D13C
:102C5000C4E750008018033809184878834648466E
:102C60004870587041462000FFF7F2FE59468046F2
:102C70002000FFF73FFF414602002000FFF7E8FE7B
:102C80008046CFE7F0B557464546DE464E46E0B5AE
:102C900083B00191457B04006B0000685B19DF1E67
:102CA000C15DC219002952D04B005B18033BC31809
:102CB0005E78B446002E1CD1019E002E44D0E67BE7
:102CC000002E04D073009B19C318033B5D70A37BD7
:102CD000002B00D1A573E573002931D10023280012
:102CE0005370617303B0F0BCBB46B246A946A04620
:102CF000F0BD72006244033A801842789046002288
:102D0000427091465A7020003200FFF7A1FE434600
:102D10008246002B07D05B0021684344033BCB185D
:102D20005A78002A17D1424651462000FFF790FEFC
:102D3000019B01002068C219002BC0D10029CDD011
:102D40004B005B18033BC31800209870C6E7019B3B
:102D5000002BB4D1C2E75000801803380918487816
:102D6000834648464870587041462000FFF770FE81
:102D7000594680462000FFF7BDFE41460200200074
:102D8000FFF766FE8046CEE770B5040000292CD020
:102D9000437B8B422ED00568480040180338281822
:102DA0008278002A21D053009B18033BEA5CEE187E
:102DB0008A4202D11BE0002A08D053009B18033B33
:102DC000EB185A788A42F6D142785A7000230122D1
:102DD000837043702000FFF7D5FE617B0200200066
:102DE000FFF736FE6073012000E0002070BD4378DD
:102DF0003370EBE701221900FFF7C4FE6073012076
:102E0000F4E7C04670B516000D0019000400FFF786
:102E1000FDF82900701C02F04BFE0023E681A5811D
:102E20006060A36070BDC04670B502680400EFF337
:102E3000108572B61368002BFCD0BFF35F8F20891A
:102E40006389E289C31A01D5561C9B19934208D1A4
:102E50002368BFF35F8F00221A6085F3108800207B
:102E600070BD6368A2899C465043604402F04EFEE8
:102E7000002210002389E18901339BB2994250411D
:102E800041420B4023812368BFF35F8F1A6085F3B3
:102E9000108840BF0120E3E770B5040008002268F5
:102EA000EFF3108672B61368002BFCD0BFF35F8F70
:102EB000658923895B1B02D5E28901329B18002BAF
:102EC00007D12268BFF35F8F136086F3108800205C
:102ED00070BDA28963685543591902F017FE00229C
:102EE00010006389E18901339BB29942504141420C
:102EF0000B4063812368BFF35F8F1A6086F31088ED
:102F000040BF0120E4E7C046F8B5040006200D00EC
:102F100000F0C8F9002844D02A4B2B49E21853424C
:102F20005A418023DB039C469205284B62441A6079
:102F3000274B1A6010008B689843FBD1214B8021EE
:102F4000E3185A425341234A5B0049009952062034
:102F500000F0A8F92900C00001F0B6FEC30921D194
:102F600040270121260080256162A36200232C36C0
:102F7000AD0135432B60062000F094F93900800044
:102F800001F0A2FE6023E26A53406E221A408023C1
:102F90005B0133431A60104B236310232B600D3BFE
:102FA000A364F8BD0D4A934203D900230C4F0D4989
:102FB000D8E77F221040013040089F0119003F18D8
:102FC0000300CFE70080FCBF00C0004000E00040ED
:102FD00000F000408C29002001030000FEFF0000EB
:102FE000C0FF3F00FFFF000030B50C2083B000F0B1
:102FF000B7F9FEF7A5FC00280ED0944B944A1A604E
:103000005A609A60DA601A615A619A61DA611A62EA
:10301000904A5A6203B030BD8F4CA06700F040FA6E
:1030200001228E4B1A60636C012BFCD103228C4B66
:103030001A60894A936B012BFCD101330121894A23
:1030400089480093043300F033F90523874A00933D
:103050000121874800F02CF9864B5A68FF2A02D8D4
:10306000802252005A608022784C7D4B21691201E7
:10307000804D1A60002905D0606901F025FE0130FD
:103080000138FDD1E0217B4B02201A6811408022DB
:1030900052012A4311601968484003210140116020
:1030A00004219A681142FCD08022802192012A4397
:1030B00009011160802252005A606F4B23616F4BEF
:1030C0005968FF2900D85A600321644A6B4B11608C
:1030D00002399A681142FCD0E0201A681040802220
:1030E00052011A4310601868484003210140022031
:1030F000116062498A681042FCD080229201134319
:10310000802212011A6080225D4B52004A60636186
:103110005C4B5968FF2900D85A6080225A4BE169FC
:103120001201584D1A60002905D0606901F0CCFDEC
:1031300001300138FDD1E02252490B681A4080234A
:103140005B012B431A60802380229B012B431201D9
:103150001A6080223E4B52004A60E3614B4B596833
:10316000FF2900D85A608022494B216A1201474D3D
:103170001A60002905D0606901F0A6FD0130013810
:10318000FDD1E02241490B681A4080235B012B43AB
:103190001A60802380229B012B4312011A60802336
:1031A00080225B004B602A4BD2022362394B596864
:1031B000914200D25A608022374B616A1201354D2C
:1031C0001A60002905D0606901F07EFD01300138E8
:1031D000FDD1E0222F490B681A4080235B012B436D
:1031E0001A60802380229B012B4312011A608023E6
:1031F000DB024B60174B6362284B5A68FF2A02D8E8
:10320000802252005A608022254BA1691201234D71
:103210001A60002905D0606901F056FD01300138BF
:10322000FDD1E0221D490B681A4080235B012B432E
:103230001A60802380229B012B4312011A60802395
:103240005B004B600E4BA361E4E6C0468C2000207F
:10325000006CDC021BB70000008000403CB0004066
:1032600030B00040002F685900800240008C864733
:1032700000C0024030800040001BB7003C8000408E
:10328000405973075480004054B0004060800040B3
:1032900060B000406C8000406CB00040488000404E
:1032A00048B00040014B8000C05870478C2000207F
:1032B000F0B5C646040000B50C2090461F000E0075
:1032C00001F002FD4101091A8D01691AC9000918AE
:1032D0008901404601F0F8FC069B3F041A0323686D
:1032E0001743002B22DB1A4B1A4DE21853425A4166
:1032F00080235B019C461203174B62441A60174BF4
:103300001A601100AB689943FBD1C022231D9201C2
:103310001A4321232660A06013602368002BFCDA87
:103320000823E760136080BCB846F0BD3F232268E5
:103330001340B342D7D1A3681B051B0D8342D2D1E2
:10334000EE22E368D2021340BB42CCD1EBE7C04689
:103350000040FDBF00C0004000E0004000F0004021
:103360008023024A9B000343D362704700800540DC
:10337000024B1A68024B5A607047C0468C280020E6
:1033800000800540184B0200184810B5D861802015
:10339000174BC0051860174C1748046000290AD065
:1033A000E021164BC9041960002A09D18022134B71
:1033B00012061A6010BDE021C9041960002AF5D078
:1033C00053019B1A98008023801800015B049842E7
:1033D00000D30B4880220B4BD2051860024B58607B
:1033E000064B1A60E6E7C046008005402131B76A07
:1033F00000B00540FCFF01000820014000A005408E
:10340000FFFFFF008C28002010B5140080221B4B0A
:10341000D2051A6000281AD00123194A1843194B03
:10342000DA61194A42401A62596298628022134B4B
:10343000D2051A601549164A1160E022D2041A60BA
:10344000002C07D18022134B12061A6010BD0D4BC1
:10345000D861EBE763011B1B9A008023121912014C
:103460005B049A4200D30C4A0C4B1A60054B5A601D
:103470008022084BD2051A60E8E7C04600B005403C
:10348000D3C007B0008005402D3FF84FFCFF01007E
:103490000820014000A00540FFFFFF008C2800200D
:1034A000AA23064A1B0113602133FF33D36004496A
:1034B000044B19605368002BFCDA7047004002404F
:1034C00000B0FA00006002402C4B2D4A70B51A6023
:1034D0002C4A2D4B2D491A6014008B689C43FBD15C
:1034E0002B4D2C4EB54208D2013E761BB60808CDB6
:1034F000984723000134B342F9D1FFF775FD264AFE
:10350000214B1A60214A9368DB43DB01DD09002B64
:10351000F9D14022214B224C224E9A675A671A67F2
:10352000DA66B44208D223682000002B20D0083489
:10353000FEF782FDB442F6D31B4E1C4CC022A1689C
:10354000300002F0E3FAA660FEF788FAFEF738FDD5
:10355000FEF728FF164C174EB44208D2013E361B28
:10356000B60808CC98472B0001359E42F9D170BDB2
:103570000834FEF753FDB442D5D3DDE700E0004048
:10358000BFCDFBFEFE7F3C0000F0004000C00040CD
:10359000A0170020B0170020FFFFFF0100F001403E
:1035A00090170020A01700200000002000ED00E090
:1035B000B0170020BC17002000BEFDE7094A030039
:1035C0001068002805D00849C3188B4207D813603B
:1035D000704706480449C31810608B42F7D9012090
:1035E0004042F5E78424002000000420BC2900208C
:1035F00010B5FFF7E1FFC0460FB400B5084883B02F
:1036000002F0E8FB049B002B07D005A918000191EC
:1036100001F0DAFA034802F0DDFB0120FFF7CCFFEE
:10362000C8920010D892001010B50148FFF7E4FFCF
:10363000DC9200107047C046F8B557464E464546E6
:10364000DE46E0B599460A9B07009A460D9B8846E0
:10365000934615000B9E9B0710D10C9B9E420DD2EA
:103660009D1B14000E005D4422004B4601343100C6
:103670002020B847A542F7D1B0460B9E002E27D098
:10368000444675195346AA1B013E985D21004B46DE
:10369000B847002EF6D123002C0098460D9B9B07BF
:1036A0000FD55B46E51A0C9BAB420AD946469846B5
:1036B00022004B46310020200135B8470134A8458F
:1036C000F6D82000F0BCBB46B246A946A046F8BDDD
:1036D0002C00E3E7F0B54F464646D646C0B584B069
:1036E00098460EAB1B78129F994694460D9C109BF2
:1036F000119EBA0725D4002E4BD19C4200D3BFE0C7
:1037000001223A4092461F2C00D9B8E00C9A551E6F
:10371000302201E0202C03D001342A55A342F9D8ED
:103720005246002A0DD0A6420BD9202C44D00C9A28
:10373000551E302201E0202C3ED001342A55B442DF
:10374000F9D1FA064DD57A053FD4002C39D10F9B1B
:10375000102B00D179E00F9B022B00D18AE030239F
:103760000C9A012413704B46002B3FD02D230C9A4A
:10377000135501340C9B624600930397434602960F
:103780000194FFF759FF04B0E0BCBA46B146A84621
:10379000F0BD012215003D40AA463A422FD04A46CC
:1037A000002A02D10C323A4200D0013E9C42BAD2E9
:1037B0001F2CABD9202E27D92024FA06DAD57A057A
:1037C00003D4A3422DD0A6422BD00F9B102B32D076
:1037D000022B20D0202CCDD030220C9B1B191A702C
:1037E0000134202CC6D04B46002BBFD17B070DD413
:1037F0003B07BFD520230C9A13550134BAE79C42EE
:103800009FD21F2C00D881E720249AE72B230C9A03
:1038100013550134AEE7202CACD00C9B1B1901349E
:103820003AE0631E012C92D00F9A102A2AD0022A65
:103830002FD01C00D0E7BB060ED4202C9AD00C9BB6
:103840001A19013478231370C4E7BB060DD478230A
:103850000C9A01241370BFE7202C00D18AE758226C
:103860000C9B1B191A700134B4E758230C9A0124DD
:103870001370B1E70C9A603301241370ACE7202475
:1038800000265EE7023CBA06E9D40C9A12191C0025
:10389000D8E70C9A9246534462221A709AE7C046BF
:1038A00010B5002800D110BD02F048FAFBE7C04671
:1038B0000B0010B5002802D049681B68984710BD5E
:1038C000F0B5DE4657464E464546E0B59BB09B46B2
:1038D000249B89469846259B0B900C924046424675
:1038E00019009A4601F0B9FC002800D0D8E0012266
:1038F00040465146774B524201F0AAFC002800D0C6
:10390000CEE0012240465146734B524201F08AFC00
:10391000002800D0C4E0002200234046514601F0B8
:1039200081FC002800D0B9E1424653460A9209932F
:103930008023289ADB001A400E92289A1A4201D15D
:10394000062326930A9A099B1600134300D0C7E06A
:10395000289B002500261B0500D49BE100230D9326
:10396000269A0D9B9A4200DC9FE1D01A431E2693B3
:103970008023289ADB001A430023002728920D9306
:10398000279B0024BB4200D9DC1B0223289A1A4043
:103990000E92289A134203D07B427B415B421C402B
:1039A0000D9B002B07D00A9809992A00330001F0DB
:1039B000D8FB0A900991002200234046514601F0AD
:1039C00031FC002805D08020000684460999614416
:1039D0000991289A414B0B9D13400493269B0A9A08
:1039E0000293099B03940092019349465B46280089
:1039F0000C9A00F08BF90400002F62D0289B220063
:103A000098061F23C0179843631C984649465B4697
:103A10006530A8470D9B0025DA179C18DB0F9A46E6
:103A20005440013F01E0202D13D00AAA94461F23E1
:103A3000200063440A2101355E1901F045F9303157
:103A4000317020000A2101F03FF926000400092E00
:103A5000E9D805230693002304930A3303935346BE
:103A600005970B9F029312AB009342465B46494673
:103A700038000195FFF72EFE0E9B0400002B20D08E
:103A80000C9BC51A279BAB421BD91E0022005B462C
:103A9000494620200135B8470134AE42F6D810E03F
:103AA000289B42460493279B49460393269B0B98E9
:103AB00002935346009201935B460C9A00F026F95C
:103AC000040020001BB0F0BCBB46B246A946A0468D
:103AD000F0BDC046FFFFEF7FFFFFEFFFFFF7FFFFE7
:103AE000734B099F9C467800400D604401F0C8FB71
:103AF000704A714B01F053FB704A714B01F028FB87
:103B00003B03704A1B0B1A4304000D0030001100E8
:103B10006D4B002201F013FB6C4A6D4B01F03FFB33
:103B200002000B002000290001F012FB01F0C0FB95
:103B30000D9001F0A5FB674A674B04000D0001F0F2
:103B40002EFB0022654B01F003FB01F0B1FB644A40
:103B50000600644B2000290001F021FB0400300026
:103B60000D000F9601F08CFB5F4A604B01F017FBD4
:103B700002000B002000290001F0E1FA02000B0016
:103B800006000F0001F00BFB320004000D003B00AB
:103B90003000390001F0DCFA002210901191544BF2
:103BA0002000290001F0DDFA0022524B01F0D0FA8A
:103BB00002000B002000290001F0D3FA00224E4B36
:103BC00001F0C6FA02000B002000290001F0C9FA3A
:103BD0000D008021040032003B000020C90501F0E7
:103BE000AEFA02000B002000290001F0B1FA020039
:103BF0000B001098119901F0B4FA0022314B01F03A
:103C0000A7FA3E4B0F9C9C4664440022230501F01A
:103C1000C6FA05000E0002000B000A98099901F08F
:103C200001FB00280AD00D9B2800013B31000D93B9
:103C30000022304B01F095FA05000E00C6270D99C1
:103C40002B0063318F42BF4128997F420437090519
:103C500000D495E6334300D182E6099C284A21002E
:103C6000284B0A9801F0ECFA002808D00022210025
:103C7000254B0A9801F0D6FA002800D070E6269B62
:103C8000002B00D17CE60E9B5A1E9341269AD31A34
:103C9000269375E6002304270D9371E643460A93A5
:103CA00080231B065344099342E6002326935FE6D4
:103CB00001FCFFFFFB799F501344D33FB3C8608BD7
:103CC000288AC63F0000F03F0000F83F61436F6361
:103CD000A787D23F71A379094F930A400000E03FC4
:103CE0001655B5BBB16B0240EF39FAFE422EE63FE6
:103CF00000002C400000244000001840FF0300009A
:103D00002D431CEBE2361A3F80842E41F0B54E461F
:103D1000DE4657464546E0B597B09946209E219F1E
:103D2000229B8346984607910C923B00320030005C
:103D3000390001F092FA002800D0A9E101223000F8
:103D40003900CA4B524201F06DFA002800D0E1E080
:103D5000012230003900C64B524201F079FA0028A6
:103D600000D0B7E0002230003900C24B01F070FAF9
:103D7000002800D099E0002230003900BE4B01F04D
:103D800051FA002800D090E00022002330003900D2
:103D900001F048FA002800D0B1E000230D93249BE5
:103DA0005B0501D40623984608AB9C4617220024E5
:103DB00030234146624404E0013413550139202C7C
:103DC00001D00929F8D888463000390001F070FA8E
:103DD0004346DA00A94B05009B181A685B680892F5
:103DE000099301F04DFA02000B003000390001F098
:103DF000A6F9089A099B01F0D2F90A900B9101F0FB
:103E00007BFA824601F038FA02000B000A980B99FF
:103E100001F095F900229A4B0A900B9101F018FAE3
:103E2000002800D1C0E001239C46E244504601F046
:103E300023FA02000B000898099901F0F9F900280B
:103E400002D000239A4601354346002B6AD008ABC6
:103E500017269C4608956644554614E001235B42AC
:103E600043440A2128009A4600F02EFF01343031E5
:103E70003719397028000A2100F026FF092D00D8D3
:103E8000D0E0D0460500202CE8D10EAB98460323A5
:103E9000249A1340012B00D196E02023249A019309
:103EA0000392239A434602921EE0249B58460493B1
:103EB000239B00960197039343460C9A029307991C
:103EC0004B46FFF7FDFC17B0F0BCBB46B246A94617
:103ED000A046F0BD249B5B070ED40322694B2499B6
:103EE0000192039123990291009358464B460C9AF4
:103EF0000799FFF7A1FBE6E70422634BEFE73B00DE
:103F000032000020002101F01AF9012306000F0001
:103F10000D9344E7249B0393239B02930423019373
:103F20005A4BE1E7280001F0ABF902000B0030002A
:103F3000390001F004F9524B002206000F0001F095
:103F400071F90EAB984600280AD1002230003900E2
:103F50004B4B01F07DF9002802D1EB0700D501356C
:103F6000202C94D008AA94461723280063440A21E1
:103F700001341E1900F080FE3031280031700A2112
:103F800000F07AFE051EEBD10323249A1340012B87
:103F90001BD0202C00D180E70D9B002B35D02D228B
:103FA0004146631C0A5579E700220A980B99344B65
:103FB00001F038F9002800D046E75346002B51D1D4
:103FC00001239C46E2443FE72024239B002BE0D0C2
:103FD0000D9B002B03D1249A0C33134202D0239B58
:103FE000013B2393239BA342D3D908AB9C461722C2
:103FF00030236244202C00D14FE72399013413551C
:104000008C42C6D0202CF8D147E7249B5B0724D4F0
:10401000249A2300120700D440E7202241460133AE
:104020000A553BE75746089D202C00D12DE722007A
:1040300030214046002F09D00132B154202A00D14E
:1040400023E7D3431B191B18002BF5D10EAB984661
:104050002E234146541C8B5482E72B224146631C7D
:104060000A551BE7DB0700D4EEE6A9E7FFFFEFFFE9
:10407000FFFFEF7F65CDCD4165CDCDC1E094001050
:104080000000E03FE8920010EC920010F89200105F
:10409000249B0393239B029303230193004B23E769
:1040A000F4920010F0B5DE464E4657464546E0B560
:1040B0009FB01C00289B91460993C94AC94B8B4667
:1040C00008901A60002900D118E2002320789A464F
:1040D000002800D11AE226001D005C460AE02A00F2
:1040E0006F1C4B46089D2100A8473D0001363078E3
:1040F000002870D02528F2D110239B46083B9A4611
:10410000043B9846023B00219C46721C1078160026
:104110000300203BDBB2102B03D8B34F9B00FB58AE
:104120009F460300303B092B32D900230A932A28EB
:1041300068D0002398462E283ED00300683BDBB2AF
:10414000122B1CD8A94A9B00D3589F460123013249
:104150001943DBE7634601321943D7E7434601328F
:104160001943D3E75B4601321943CFE75346013287
:104170001943CBE780235B007078194301360300B5
:10418000253BDBB2532BAAD8994A9B00D3589F46B4
:1041900000270300B800C01901364000C01833786A
:1041A00030381A00303A0700092AF3D90A9018006B
:1041B000002398462E28C0D180237078DB00194355
:1041C0000300303B721C092B00D8A1E12A2800D142
:1041D000B2E11600B1E7A346AA462C00D14503D8A8
:1041E00001235B424B449A464B46524659460020B7
:1041F000089DA84720001FB0F0BCBB46B246A946A8
:10420000A046F0BD099B40CB0A96002E03DB5078F8
:104210000993561C8DE72838014370420A90099390
:104220005078561C85E7782800D1DFE1582800D166
:104230004CE26F2800D14FE3622801D100F030FC3E
:1042400010230A009A430B92692801D000F0A9FCC0
:104250000A230C934B0500D5D0E10B9A8023110063
:104260009B0019408B461A4200D0A1E28023110026
:104270005B0019408A461A4200D0B6E313005B0681
:1042800000D5EDE2130009991B0601D400F076FC7D
:1042900008C91BB2D8171A18424092B20991934626
:1042A000DA0F1292002B09D1802310220B99DB0028
:1042B0000B4091430B91002B00D0E4E20B9A612359
:1042C000920600D541230EA91F228C46DBB2624420
:1042D0000A3B5F461395A34655460C9CB2460D9388
:1042E00016000AE03033DBB201357355A74200D225
:1042F000EDE2202D00D1EAE207002100380000F0B5
:10430000E3FCCBB20929EDD90D9A94466344DBB2A4
:10431000EAE780239B007078194301362FE7707815
:10432000682800D1CDE180230136194327E7707852
:104330006C2800D1BFE180235B00194301361EE7E2
:10434000462800D19BE10722099B04910733934340
:104350000A9A19000392424602920CC908980092E8
:10436000019309912A004B462100FFF7CFFC01364B
:104370000500BCE62A006F1C4B46089D2100252045
:10438000A84701363D00B2E68B0700D4ADE1099B9A
:104390002A009A466B1C9846534601CB21009A4648
:1043A000089F4B46C0B2B8470A9B9C466544012B08
:1043B00000D886E2089B4746B04626004C46994600
:1043C0003A002300013731002020C847AF42F7D11F
:1043D000A1465346340046460993013687E6C04657
:1043E000A54000108828002000930010449300107E
:1043F00090930010099B04CB9B4643460992002BE7
:1044000000D1C6E013789C46002B00D1BDE34346A3
:10441000013B099A0133D0180A9F130001E083423F
:1044200003D05A780133002AF9D1099A0A979B1AC6
:104430000B9380230A00DB001A400C92194204D02F
:104440000B9B434501D943460B9302231A000A40B4
:104450000D920B4200D187E16046002800D168E14F
:104460000C9B002B00D10DE1A844C246099B574686
:104470005B1B9846089BB2462A0026004C4699468C
:1044800009E023003100551CC8474346585D002809
:1044900000D126E12A009742F3D1A1463D00340025
:1044A00056460D9B002B00D043E15B460136099335
:1044B0001DE6099B1A0008CA9246002B48D021220B
:1044C00011438B460EA884461F21614409950022A2
:1044D0000F27A4460D0002E0202A0CD00B003C0060
:1044E0001C4020003730092C00D807380132A8546E
:1044F00019090F2BF0D86446099D32E0DC4B207877
:10450000089300239A46002800D0E4E5002465E6DD
:10451000434606000A9F9800C018013240008019E7
:104520001678030030003038303B0928F3D93000CA
:10453000984616000A9700E6099B023604CB90467F
:10454000D2434046D2171040804609933078F4E5B4
:10455000102208009043113210438346002249057F
:10456000B0D55B4606930823059343460493102376
:1045700003930023029316AB019200932A004B464B
:1045800021000898FFF7A6F8534605000136099365
:10459000ADE513789C46002B00D1F7E202235B4285
:1045A00037E7202302009A43472A04D180231B01C6
:1045B000194302239843452801D120231943072298
:1045C000099B0491073393430A9A190003924246C8
:1045D00002920CC908980092019309912A004B4657
:1045E0002100FFF76DF90136050080E510230C93DB
:1045F0000C230A009A430B924B0503D501230B9A17
:104600009A430B92692800D127E6642800D124E65A
:104610000B9A802311009B0019408B461A4200D050
:1046200066E1802311005B0019408A461A4200D0DF
:1046300039E213005B0600D53CE113001B0600D4F1
:10464000A6E2099B04CB1204120C934609935B4625
:10465000002B00D09AE10B9A1033110099430B9173
:10466000520500D492E100239A460B9B06930A9BC5
:104670000593434604930C9B039300230CE12023F2
:10468000194360E6099B0A9A5B1B98464B46914684
:104690001F00B2462600089C2A003B003100A047BC
:1046A00043460135585D0028F6D14A463400B946E4
:1046B00056460A92F5E6C0239B00B07819430236AD
:1046C0005DE5C023B0781943023658E50C230A0093
:1046D0009A4314331A43103B0B920C934B058DD421
:1046E00096E7A14634005646DBE60A9A012A00D82E
:1046F00053E26B1E9F18089BB04626004C46994615
:104700002A002300013531002020C847BD42F7D1DF
:10471000A14634004646099B3A0001CB2100984649
:104720007D1C4B46089FC0B2B847434601360993EB
:10473000DDE40B9B0A9AA8469A4200D8B5E6944657
:104740006544ED1A089B4746B04626004C469946FC
:104750003A002300013731002020C847AF42F7D18B
:10476000A14634004646A0E60B9A0A99531C914292
:1047700000D814E24B199B1A1F00089BB246260072
:104780004C4699462A002300013531002020C847B5
:10479000BD42F7D10A9BA14601330B93099B34001C
:1047A0001B7856469C466046002800D058E67CE6BA
:1047B0000722099B07339343013294469C44624687
:1047C0005F6809921A68FB1710931193109811995A
:1047D000030053400E930B007B400F9394460E9AB8
:1047E0000F9B121A8B410E920F93FB0F624612938E
:1047F00000233A439B463DD00B9A6123920600D595
:1048000041230022DBB20EA90A3B8C4692460D934F
:1048100043461F3262441395159655460E9E0F9FD0
:10482000A24690460C9C14930CE03032D2B2434620
:1048300001355A55BB4500D18AE1202D00D18AE1CE
:1048400006000F00220000233000390000F07AFA41
:10485000D2B2092AE9D90D9B9C466244D2B2E6E75E
:10486000FF23099904C913401A00099117E5C046AE
:10487000353600100B9A1033110099430B915205F5
:10488000BAD500239A460B9B06930A9B0593434691
:1048900004930C9B0393129B02935346019316AB14
:1048A0002A00009321004B460898FEF713FF0136BB
:1048B00005001CE4FF22099B02CB11408B460993A3
:1048C000C5E65346454609930136FFF710FC5646A8
:1048D0005C46AA46139DD6E708230C930B910B99CF
:1048E000642800D084E60B9B5B0500D586E6B4E423
:1048F0000722099B07339343013294469C44624646
:1049000009921A685B6810009B4613005A461343CD
:1049100007D10B9A1033110099430B91520500D522
:10492000A1E60B9A6123920600D541230022DBB257
:104930000EA90A3B8C4692460D9343461F326244B1
:104940005F461295A34655460400B24690460C9E1B
:1049500013930DE03032D2B2434601355A5500234D
:10496000BB4200D100E1202D00D100E104000F0086
:10497000320000232000390000F0E4F9D2B2092A05
:10498000E8D90D9B9C466244D2B2E5E70B9A6123BD
:10499000920600D54123DBB20EA90A3B1F228C46AA
:1049A0000D93230062445C461295170055469B46C2
:1049B000B2460C9E08E03033DBB201357B55B44281
:1049C0000ED3202D0CD004003100200000F07CF923
:1049D000CBB20929EFD90D9A94466344DBB2ECE7D8
:1049E00056465C46AA46129D3FE6099B1A0008CA35
:1049F000D91713925A184A409246DA0F1292002B96
:104A000008D1802310220B99DB000B4091430B91BE
:104A1000002B2BD10B9A6123920600D541230EAABD
:104A20001F279446DBB20A3B0D9567445D46099308
:104A3000A3465446B2460C9E08E03033DBB2013543
:104A40007B55B4420ED3202D0CD004003100200041
:104A500000F03AF9CBB20929EFD9099A9446634498
:104A6000DBB2ECE756465C46AB460D9D0B9B2A003D
:104A700006930A9B21000593434604930C9B0898D8
:104A80000393129B013602935B46019316AB00938E
:104A90004B46FEF71FFE139B05000993FFF727FB0C
:104AA00002230C931AE7099B04CB92461293002A27
:104AB00008D1802310220B99DB000B4091430B910E
:104AC000002B2BD10B9A6123920600D541230EAA0D
:104AD0001F279446DBB20A3B0D9567445D46099358
:104AE000A3465446B2460C9E08E03033DBB2013593
:104AF0007B55B4420ED3202D0CD004003100200091
:104B000000F0E2F8CBB20929EFD9099A9446634440
:104B1000DBB2ECE756465C46AB460D9D0B9B2A008C
:104B200006930A9B21000593434604930C9B089827
:104B30000393002302935B46019316AB00934B460D
:104B4000FEF7C8FD129B050009930136FFF7CFFA67
:104B5000B44200D871E6149B54460E960F97AA46AD
:104B60009846159E139D8EE6A64200D8FBE6139B41
:104B700056469846AA465C46129D76E508C9D8175F
:104B80001A1842400991FFF78AFB00230B9350E467
:104B9000099B04CB9346099359E52F00BBE50B9382
:104BA00001E6063B0C939AE600B585B0039101211E
:104BB00002900093034813004A4202A9FFF772FAD9
:104BC00005B000BDB138001010B5094A03001468E3
:104BD00084B0002C08D0012200910648524203A95B
:104BE000A047012004B010BD01F0F4F80020F9E75F
:104BF00088280020A138001001480421014B1847E3
:104C0000F00E0020354C0010014B9B681847000047
:104C1000F00E0020142310B50100188804331B88FF
:104C2000984710BD162310B50100188802331B8861
:104C3000984710BDF8B54746CE4680B50F1E19D02F
:104C400014239946043304000025012698464B4658
:104C50001888434621681B88984701C4431E984121
:104C6000013540420640AF42F1D13000C0BCB946E8
:104C7000B046F8BD0126F8E7124A936F9B0815D29B
:104C80009066D166002905D0FFE7FFE7FFE7516F87
:104C9000106F704704B580210906C21751400028E3
:104CA00000D0C84304F0D0F8002104BDF0B5146E64
:104CB000556E576F166FFFF7E3FF1466556657671B
:104CC0001667F0BD000000D0114A936F9B0813D205
:104CD00010665166002905D0FFE7FFE7FFE7516F37
:104CE000106F704704B5002801D00020C04304F0C5
:104CF000ABF8002104BDC046F0B5146E556E576F79
:104D0000166FFFF7E5FF1466556657671667F0BD27
:104D1000000000D094464A4A926F9208624601D23F
:104D200028E0C046F0B5464E346E756E776F366F2C
:104D300000F020F89446424A146655665767166795
:104D40006246F0BD94463E4A926F9208624601D296
:104D500054E0C046F0B53A4E346E756E776F366FDC
:104D600000F04CF89446364A146655665767166745
:104D70006246F0BD002B24DB11D000293EDA00B5DD
:104D8000C943404200D1013100F038F8C9434042E4
:104D900000D10131DB43524200D1013300BD002A72
:104DA000EBD1002801D1002905D00020C90FC90787
:104DB00001D1C043410800B504F036F800220023B9
:104DC00000BD00B500290ADBDB43524200D10133AC
:104DD00000F014F8C943404200D1013100BDC9437D
:104DE000404200D10131DB43524200D1013300F097
:104DF00005F8DB43524200D1013300BD002923D125
:104E0000002B18D1002A0CD0BC460D4F38667A66AC
:104E100000210023FFE7FFE7FFE77A6F386F67465F
:104E20007047002801D00748010000B503F0FCFFDF
:104E30000022002300BD02000B000020002170476B
:104E4000000000D0FFFFFFFF002B00D0BFE0130CDD
:104E500028D1002AE7D080B4114F39667A66FFE77F
:104E6000FFE730B4040C7B6F396F1B0423433B66B0
:104E70007A66FFE7FFE7FFE7C04684B27B6F3D6FCE
:104E80001B0423433B667A66FFE7FFE7C046002327
:104E90002C042D0C7A6F386F00196941B0BC704733
:104EA000000000D0F0B594460025140E01D1120286
:104EB0000835140F01D112010435940F01D192006D
:104EC0000235D40F01D152000135D40B0134254FE6
:104ED0007C66254C3C660E0C93B2FFE7FFE7FFE7CC
:104EE0003C6F6643360C7703BE467343DF0B5B04AF
:104EF000C01AB941130C7343DB18C91ACE086643B4
:104F0000360CB64493B273431F0F1B01C01AB9414C
:104F1000130C73431F0B1B05C01AB941860D8F027A
:104F20003E436643360C092D24DB520A7243801A35
:104F30007703460A6643360C16235B1BDE40DF40D0
:104F4000BF1964466643821B704604350633010070
:104F5000D940A840C01900D30131A24206D2002393
:104F6000F0BD0000000000D0FFFFFFFF121B01306A
:104F7000F3D3F1E709277F1BFE406446A2B27243D8
:104F8000801A00D20139220C7243130C1204821AC7
:104F900099410B007046043513370100F940A840D1
:104FA000801900D30131002B02D1A2420AD2F0BDF8
:104FB000013000D30131121BFAD2013BF8D1A242D9
:104FC00000D2F0BD013000D30131121BF7E7F0B57C
:104FD0001C0C00D080E00CB400251C0A04D11B027C
:104FE000160E3343120208351C0B04D11B01160F99
:104FF0003343120104359C0B04D19B00960F3343BD
:1050000092000235DC0B02D192185B4101351C0085
:10501000971864410134464F7C66464C3C660E0C42
:10502000FFE7FFE7FFE7C0463C6F6643360C7703B8
:10503000BE4697B27743C01B00D20139C01B00D2D5
:1050400001399FB27743C91BC91B170C77437E04F4
:10505000FF0B801BB941CE086643360C0C2D33DBA9
:10506000B644120B1F053A431B0B97B27743C01B84
:1050700000D201399FB27743C91B170C77433E0416
:105080003F0C801BB941860D8F023E4366432927A2
:105090007F1BFE400C3D7746AF40BF1930BCA2B22B
:1050A000ABB272437343801A9941220C7243130CC2
:1050B0001204801A994102000B000137001BA9411C
:1050C000F9D2781E0021F0BD0C277F1BFE407746E9
:1050D0007F0BAF40FF19E0E700245D1C07D0144FA1
:1050E0007D663966FFE7FFE7FFE7FFE73C6F95B2B4
:1050F0009EB265436643401BB141150C1E0C6543CF
:10510000664336042F0C3E432D04401BB1419942A7
:1051100004D202000B0020000021F0BD01D190421A
:10512000F7D3801A994101349942F2D3F6E700008F
:10513000000000D0FFFFFFFF48404140484018B446
:105140001B4B5B68FC46019308BD04DFD75300107E
:1051500018B4174B1B68FC46019308BD00DFE153F0
:1051600000109446134A926F920809D2624618B40E
:105170000F4BDB68FC46019308BD0CDF995600100D
:105180000C4AF0B5146E556E576F166F6246FFF7F6
:10519000EEFF084A1466556657671667F0BD18B4E7
:1051A000034B9B68FC46019308BD08DF3D5500108A
:1051B000C8180020000000D0FFB5504042405040C9
:1051C00059404B40594000E0FFB5154F4C00640D6D
:1051D00003D0BC4204D10C0314D80020090D0905EA
:1051E0005C00640D03D0BC4204D11C030AD8002229
:1051F0001B0D1B0501264B4009D44B4003D58B42A8
:1052000000D18242FFBD9942FCD19042FFBD0B43C9
:10521000DB1803431343F5D0C9434918FFBD000011
:10522000FF07000000B5FFF7CFFF804100BDC0467B
:1052300000B5FFF7C9FF01D9002000BD012000BD66
:1052400000B5FFF7B9FF01D9002000BD012000BD66
:1052500000B5FFF7B1FF804100BD012040054A00C5
:10526000121804D85A00121801D8002070470120E3
:1052700070470020704700000021002805D17047CA
:10528000C1174840401AFAD0C90713B5064B1B682E
:1052900098470CBC441CA2401005120B0349091B83
:1052A00009051943114310BDE02800201F04000028
:1052B00010B54C00620D8023D218DB00D21A5B05BA
:1052C0007E2A10DD9E3A13DACC17090349081943E8
:1052D0005242D140640001341532202A05DAD04010
:1052E0000843604310BD002010BD0846604310BD58
:1052F000C80FC018013810BD18B4044B5B6AFC46D7
:10530000019308BD24DF495800100000C818002090
:10531000132370B51D78012D15D010DD1C48FFF743
:1053200081FC1C4C01008022200000F0EFFB022DCC
:1053300006D01948FFF76EFC184B186070BD154C6D
:10534000174BA364F5E7164B124C23606360A36010
:10535000E36023616361A361E36123626362A3622B
:10536000E36223636363A363E36323646364A3640B
:10537000E36423656365A365E36523666366A366EB
:10538000E36623676367A367E367A364D1E7C04667
:1053900053440000C81800204C330000E0280020CF
:1053A000A553001007B5604601880A0A0230DF2ABB
:1053B000FAD1C9B2820804D302884088000410439D
:1053C00000E00068014A5050039007BDC818002053
:1053D0000FB403BC0CBCF0B50124E407634000E04B
:1053E000F0B50C0DCF0F661E3605891B640503D37F
:1053F000C943404200D30131640D03D0661CF60A54
:1054000007D0E41B00207F00791C89078912803CAB
:1054100024031D0DDF0F6E1E36059B1B6D0503D388
:10542000DB43524200D301336D0D03D06E1CF60AEC
:1054300007D0ED1B00227F007B1C9B079B12803D49
:105440002D032F1B661B58D4A446202E46DA203786
:105450001400BC401D00BD40F24033412A43801877
:105460005941CB0F05D0C943C0430022644250418B
:10547000514162464D0D28D10D0D07D100281FD096
:10548000241940414941013A0D0DF9D0640006D379
:10549000013000D30131002C01D140084000013A15
:1054A0000BD4941CE40A04D112051144DB071944FF
:1054B000F0BDD907204B194300E0D9070020F0BD0B
:1054C0000029DDD1002CDBD1F0BD0132C607400838
:1054D000CD0728434908002EE1D0D9E73C2E29DA30
:1054E000203E40371400BC4000D00124F240144359
:1054F0001A00BB401C43D317ACE7AC46202F08DA98
:1055000020360400B4400D00B540F840394128432E
:10551000A5E73C2F0CDA203F40360400B44000D011
:105520000124F84004430800B1400C43C117EAE7E6
:1055300010001900002494E70000F07FF0B50C0D76
:10554000661E3605891BE60A6405640D02D0651CDB
:10555000ED0A04D0002001210905803C2403A44663
:105560001C0D671E3F05DB1BE70A6405640D02D0B6
:10557000651CED0A04D0002201231B05803C240396
:105580007740644497B484B296B27443070C7E4368
:10559000150C6F4380B26843361802D30120000413
:1055A0003F183004350C00197D41844688B29AB208
:1055B00050430C0C62431F0C7C438EB27E43921905
:1055C00002D301263604A4191604170C36186741B5
:1055D00001BC81B29AB25143040C62431B0C5C4380
:1055E00080B25843121802D301200004241810047A
:1055F000130C401863412D185E410020474106BC42
:1056000088B293B258430C0C6343120C544389B2D2
:1056100051435B1802D301210904641819041A0CC0
:10562000091862416D1856410020474118BCF90223
:10563000720D1143F0026A0D1043ED020A0D03D101
:105640006D1940414941013B124E9B1B7600B3420C
:105650000ED26D0007D301300026714166463543F6
:1056600001D1400840001B05C918E4072144F0BDE2
:105670000BDA013306D1013004D101314F0D01D0D5
:105680004908F2E7E1070020F0BD013631050020AE
:10569000EBE70000FF030000F0B51C0D671E3F059F
:1056A000DB1BE70A6405640D02D0661CF60A04D011
:1056B000002201231B05803C2403D0252D06002653
:1056C000F6432E661E096E66CE0FF619B4464900E3
:1056D0004F0D02D07E1CF60A03D000200021403F6F
:1056E0003F033E1BB600B444013F7F05C91B490878
:1056F0002E6F013676089C02950D25437543ED13F8
:105700007543AD1301356D10F603761B0CB4CC0256
:10571000450D2C43A2B2B3B25A43270C7B43350C40
:105720006F43A4B26C431B1902D3012424043F1914
:105730001C041D0CA4187D4124196D41009A91B2DE
:10574000ACB26143170C7C432B0C5F4392B25A43BB
:10575000A41802D301221204BF182204230C5218E9
:105760007B41019C6C431B19520ED9010A43440131
:10577000A01A81B2B2B2514303145A43360C734398
:1057800087B27743D617D21900277E4136049B197A
:105790001704160C7F185E417316ED18F3010026EE
:1057A00080337541A90F06D16400690AE8055B0AD8
:1057B000184309D22FE00422944480337541A90A8A
:1057C000A8059B0A184326D3404149412404009A66
:1057D000019B0D005543641B4343E41A95B286B206
:1057E0007543170C7E43030C5F4392B25A43B618BD
:1057F00002D301221204BF183204330C52197B4128
:1058000052429C41002C02D40022013051414008F8
:10581000CA071043490802B06246D7079210084BE6
:10582000D218084B9A4203D212058918C919F0BD43
:105830000020002A01DC3900F0BD01331905F5E72D
:10584000FD030000FE070000002200B5203200F03A
:1058500004F8080000BD000000220B150AD410B5A2
:10586000944600F031F81414013400DA0021CB170B
:10587000144C20470020002170476244343A0CD475
:105880000C2A07DA04009140904052422032D44062
:10589000214310BDD843D94310BD203207D40C4654
:1058A0009440524220321141D040204310BD0800A4
:1058B000C917203203D452422032104110BD1800C3
:1058C000190010BD7B5800100A0DCC0F531E1B058C
:1058D000C91A520503D3C943404200D30131520DC6
:1058E00003D0531CDB0A07D0121B00206400611C8C
:1058F00089078912803A1203014BD21A70470000BF
:10590000FF03000051434343C9188C46110C83B276
:105910004B4310B4040C614392B280B250436243D3
:105920001C041B0C001910BC59411304120CC018A4
:1059300051416144704700004840414048400E4B8F
:105940005B6818470C4B1B6818470C4A936F9B0801
:1059500002D2094BDB681847F0B5146E556E576FCD
:10596000166FFFF7F6FF054A146655665767166708
:10597000F0BD014B9B681847C8190020000000D0FB
:10598000491A002808D1084670470000C10FC9070E
:1059900000D54042002817D0F44603B40B4B1B68D7
:1059A000984706BC81409E384042803107D20B06A2
:1059B00007D04900490AC005104308436047013039
:1059C000F8E7490A8902F5E770470000E02800205F
:1059D000014B5B6A18470000C8190020034BDB6FBE
:1059E000FC4618477CDF815A00100000C8190020CF
:1059F000132310B512481C78FFF714F90100012C8D
:105A00000AD003DD80220F4800F080F80E48FFF72F
:105A100001F90E4B186010BD0A4C5422200000F012
:105A200075F80B4B6365A365E36523666366A36640
:105A3000E36623676367A367E3672362E361E5E7E0
:105A400053460000C81900204C330000E028002015
:105A5000555A001007B5604601880A0A0230DF2A4D
:105A6000FAD1C9B2820804D30288408800041043E6
:105A700000E00068014A5050039007BDC81900209B
:105A8000C30FDB0741000A0E07D0FF2A08D009091F
:105A9000054A8918194340077047190000207047CC
:105AA0000249C918FAE70000000000380000F07F42
:105AB00070B505000C000B4E300003F00DFA280005
:105AC000210002F0F9FC0500300003F0A5F9002DDB
:105AD00005D0054B2C199C4201D8280070BD034805
